:100000000C9434000C9449000C9449000C94490061
:100010000C9449000C9449000C9449000C9449003C
:100020000C9449000C9449000C9449000C9449002C
:100030000C9449000C9449000C9449000C9449001C
:100040000C9449000C9449000C9449000C9449000C
:100050000C9449000C9449000C9449000C944900FC
:100060000C9449000C94490011241FBECFEFD8E036
:10007000DEBFCDBF11E0A0E0B1E0E8EAFDE002C0E4
:1000800005900D92AA3BB107D9F70E944B000C9442
:10009000D2060C940000CF93DF93CDB7DEB7C456E1
:1000A000D1090FB6F894DEBF0FBECDBF0E94F50197
:1000B0000E9499000E94CC0080E091E00E9408021A
:1000C0000E9437018C010E9496017C010E94E80089
:1000D0009F938F9324E630E0C701B9010E94B103DA
:1000E0009F938F937F936F93C801B9010E94B103CF
:1000F0009F938F937F936F9380E291E09F938F9371
:100100008E010F5F1F4F1F930F930E94E803C801DA
:100110000E9408022FEF87EA91E62150804090402C
:10012000E1F700C000000FB6F894DEBF0FBECDBFF0
:10013000C7CF1092B90088E48093B80084E0809320
:10014000BC00089584EA8093BC008091BC008823A1
:10015000E4F7089584E98093BC0008958093BB0080
:1001600084E88093BC008091BC008823E4F7089564
:1001700084EC8093BC008091BC008823E4F78091DC
:10018000BB00089584E88093BC008091BC00882364
:10019000E4F78091BB00089580E480937C0083E8BD
:1001A00080937A000895ECE7F0E09081907F8F7063
:1001B000892B8083EAE7F0E08081806480838091EE
:1001C0007A0086FDFCCF80917800909179000895A7
:1001D000EF92FF920F931F93CF93DF93CDB7DEB7CC
:1001E000E2970FB6F894DEBF0FBECDBF81E00E944C
:1001F000D3008C011F938F9386E591E09F938F939B
:10020000CE0101967C019F938F930E94E803C70162
:100210000E940802B80180E090E00E94B60223E349
:1002200033E343E550E40E94440320E030EC4FE721
:1002300054E40E9415022AE037ED43EA5BE30E9492
:1002400015020E9487020F900F900F900F900F9051
:100250000F90CB01E2960FB6F894DEBF0FBECDBF74
:10026000DF91CF911F910F91FF90EF900895EF9242
:10027000FF920F931F93CF93DF93CDB7DEB7E29733
:100280000FB6F894DEBF0FBECDBF0E94A20080E87B
:100290000E94AE0083EE0E94AE000E94AA002FEFE3
:1002A00030E782E0215030408040E1F700C000009C
:1002B0000E94A20081E80E94AE000E94B800F82EC1
:1002C0000E94C200E82E0E94AA000F2D10E0102FFD
:1002D00000270E291F92EF921F92FF928AE691E06B
:1002E0009F938F939E012F5F3F4F79013F932F93F1
:1002F0000E94E803C7010E9408029801A4EAB4E43E
:100300000E94C5030FB6F894DEBF0FBECDBF8D545B
:100310009241E2960FB6F894DEBF0FBECDBFDF91DB
:10032000CF911F910F91FF90EF900895EF92FF9260
:100330000F931F93CF93DF93CDB7DEB7E2970FB63E
:10034000F894DEBF0FBECDBF0E94A20080E80E94DD
:10035000AE0085EE0E94AE000E94AA002FEF30E7AB
:1003600082E0215030408040E1F700C000000E9450
:10037000A20081E80E94AE000E94B800F82E0E9400
:10038000C200E82E0E94AA000F2D10E0102F0027B7
:100390000E291F92EF921F92FF9282E991E09F93A4
:1003A0008F939E012F5F3F4F79013F932F930E94C0
:1003B000E803C7010E9408029801A4EDB0E30E947F
:1003C000C5030FB6F894DEBF0FBECDBF885592406F
:1003D000E2960FB6F894DEBF0FBECDBFDF91CF918E
:1003E0001F910F91FF90EF9008951092C50087E63E
:1003F0008093C40088E08093C10086E08093C200AF
:1004000008959091C00095FFFCCF8093C600089599
:10041000CF93DF93EC0103C021960E9401028881F3
:100420008111FACFDF91CF9108950E9429020C9497
:100430000A030E94030358F00E94FC0240F029F4D2
:100440005F3F29F00C94F30251110C943E030C947D
:10045000F9020E941B0368F39923B1F3552391F32A
:10046000951B550BBB27AA2762177307840738F023
:100470009F5F5F4F220F331F441FAA1FA9F335D080
:100480000E2E3AF0E0E832D091505040E695001C34
:10049000CAF72BD0FE2F29D0660F771F881FBB1FEE
:1004A000261737074807AB07B0E809F0BB0B802DCC
:1004B000BF01FF2793585F4F3AF09E3F510578F0F8
:1004C0000C94F3020C943E035F3FE4F3983ED4F3A4
:1004D000869577956795B795F7959F5FC9F7880FCC
:1004E000911D9695879597F90895E1E0660F771F1E
:1004F000881FBB1F621773078407BA0720F0621BAF
:10050000730B840BBA0BEE1F88F7E09508950E94D9
:10051000230388F09F5798F0B92F9927B751B0F06F
:10052000E1F0660F771F881F991F1AF0BA95C9F777
:1005300014C0B13091F00E943D03B1E008950C94D5
:100540003D03672F782F8827B85F39F0B93FCCF388
:10055000869577956795B395D9F73EF490958095F4
:10056000709561957F4F8F4F9F4F0895E89409C014
:1005700097FB3EF490958095709561957F4F8F4FD6
:100580009F4F9923A9F0F92F96E9BB279395F695EC
:10059000879577956795B795F111F8CFFAF4BB0F6A
:1005A00011F460FF1BC06F5F7F4F8F4F9F4F16C0CE
:1005B000882311F096E911C0772321F09EE8872F58
:1005C000762F05C0662371F096E8862F70E060E014
:1005D0002AF09A95660F771F881FDAF7880F96958D
:1005E000879597F9089597F99F6780E870E060E034
:1005F00008959FEF80EC089500240A9416161706BC
:1006000018060906089500240A9412161306140603
:1006100005060895092E0394000C11F4882352F066
:10062000BB0F40F4BF2B11F460FF04C06F5F7F4F1E
:100630008F4F9F4F089557FD9058440F551F59F005
:100640005F3F71F04795880F97FB991F61F09F3FBF
:1006500079F087950895121613061406551FF2CFE8
:100660004695F1DF08C0161617061806991FF1CF38
:1006700086957105610508940895E894BB2766275F
:100680007727CB0197F908950E9457030C940A032A
:100690000E94FC0238F00E94030320F0952311F021
:1006A0000C94F3020C94F90211240C943E030E9462
:1006B0001B0370F3959FC1F3950F50E0551F629F88
:1006C000F001729FBB27F00DB11D639FAA27F00DAB
:1006D000B11DAA1F649F6627B00DA11D661F829FD2
:1006E0002227B00DA11D621F739FB00DA11D621FB7
:1006F000839FA00D611D221F749F3327A00D611DD4
:10070000231F849F600D211D822F762F6A2F1124B5
:100710009F5750409AF0F1F088234AF0EE0FFF1FE8
:10072000BB1F661F771F881F91505040A9F79E3F3F
:10073000510580F00C94F3020C943E035F3FE4F308
:10074000983ED4F3869577956795B795F795E79595
:100750009F5FC1F7FE2B880F911D9695879597F99E
:10076000089597FB072E16F4009407D077FD09D063
:100770000E94D40307FC05D03EF4909581959F4FCD
:100780000895709561957F4F0895A29FB001B39F22
:10079000C001A39F700D811D1124911DB29F700D8A
:1007A000811D1124911D0895AA1BBB1B51E107C097
:1007B000AA1FBB1FA617B70710F0A61BB70B881FF1
:1007C000991F5A95A9F780959095BC01CD01089580
:1007D000AEE0B0E0EEEEF3E00C94A9060D891E89C0
:1007E00086E08C831A8309838FEF9FE79E838D8336
:1007F000AE01475E5F4F6F89788DCE0101960E94F2
:100800000A04EF81F885E00FF11F10822E96E4E0D4
:100810000C94C506ABE0B0E0E0E1F4E00C949B067C
:100820006C017B018A01FC0117821682838181FFA2
:10083000CCC1CE0101963C01F6019381F70193FDF5
:10084000859193FF81917F01882309F4BAC1853294
:1008500039F493FD859193FF81917F01853229F4CD
:10086000B60190E00E940106E7CF912C212C312C9B
:10087000FFE1F315D8F08B3279F038F4803279F05B
:100880008332A1F4232D20611DC08D3261F08033AD
:1008900069F4232D216016C0832D8260382EE32D4C
:1008A000E4603E2E2AC0F32DF8601DC037FC2DC039
:1008B00020ED280F2A3040F08E32B9F436FC81C189
:1008C000232D2064322E19C036FE06C08AE0989E81
:1008D000200D1124922E11C0EAE02E9E200D11242D
:1008E000222EF32DF0623F2E08C08C3621F4832D8A
:1008F0008068382E02C0883641F4F70193FD859157
:1009000093FF81917F018111B3CF982F9F7D9554E3
:10091000933028F40C5F1F4F9FE399830DC08336FB
:1009200031F0833771F0833509F059C021C0F801E7
:10093000808189830E5F1F4F88248394912C5301FB
:1009400013C02801F2E04F0E511CF801A080B180C5
:1009500036FE03C0692D70E002C06FEF7FEFC50166
:100960000E94F6054C018201F32DFF773F2E16C041
:10097000280122E0420E511CF801A080B18036FE11
:1009800003C0692D70E002C06FEF7FEFC5010E94C8
:10099000EB054C01F32DF0683F2E820133FC1BC0A8
:1009A000822D90E088169906B0F4B60180E290E0BE
:1009B0000E9401062A94F4CFF50137FC859137FE99
:1009C00081915F01B60190E00E94010621102A94F6
:1009D00021E0821A91088114910471F7E8C08436ED
:1009E00011F0893641F5F80137FE07C06081718149
:1009F000828193810C5F1F4F08C060817181072E37
:100A0000000C880B990B0E5F1F4FF32DFF763F2EC6
:100A100097FF09C090958095709561957F4F8F4F96
:100A20009F4FF0683F2E2AE030E0A3010E943D0670
:100A3000882E861845C0853731F4232D2F7EB22E9F
:100A40002AE030E025C0932D997FB92E8F36C1F072
:100A500018F4883579F0B5C0803719F0883721F05F
:100A6000B0C0E92FE061BE2EB4FE0DC0FB2DF460D6
:100A7000BF2E09C034FE0AC0292F2660B22E06C040
:100A800028E030E005C020E130E002C020E132E0A3
:100A9000F801B7FE07C060817181828193810C5F8C
:100AA0001F4F06C06081718180E090E00E5F1F4F94
:100AB000A3010E943D06882E8618FB2DFF773F2E4E
:100AC00036FE0DC0232D2E7FA22E891458F434FE3D
:100AD0000BC032FC09C0832D8E7EA82E05C0B82C19
:100AE000A32C03C0B82C01C0B92CA4FE0FC0FE017A
:100AF000E80DF11D8081803321F49A2D997EA92E75
:100B000009C0A2FE06C0B394B39404C08A2D8678AF
:100B100009F0B394A3FC11C0A0FE06C0B21488F47F
:100B2000280C922C9B180EC0B21460F4B60180E21F
:100B300090E00E940106B394F7CFB21418F42B187A
:100B400002C0982C212CA4FE10C0B60180E390E0D6
:100B50000E940106A2FE17C0A1FC03C088E790E036
:100B600002C088E590E0B6010CC08A2D867859F065
:100B7000A1FE02C08BE201C080E2A7FC8DE2B601BB
:100B800090E00E940106891438F4B60180E390E0F9
:100B90000E9401069A94F7CF8A94F301E80DF11DA3
:100BA0008081B60190E00E9401068110F5CF2220DD
:100BB00009F442CEB60180E290E00E9401062A9438
:100BC000F6CFF6018681978102C08FEF9FEF2B96BB
:100BD000E2E10C94B706FC010590615070400110F1
:100BE000D8F7809590958E0F9F1F0895FC01615056
:100BF000704001900110D8F7809590958E0F9F1F3F
:100C000008950F931F93CF93DF93FB01238121FD61
:100C100003C08FEF9FEF2CC022FF16C04681578183
:100C2000248135814217530744F4A081B1819D018D
:100C30002F5F3F4F318320838C93268137812F5F35
:100C40003F4F3783268314C08B01EC01FB010084E6
:100C5000F185E02D0995892BE1F6D80116968D9145
:100C60009C911797019617969C938E931697CE0199
:100C7000DF91CF911F910F910895FA01AA27283093
:100C800051F1203181F1E8946F936E7F6E5F7F4F59
:100C90008F4F9F4FAF4FB1E03ED0B4E03CD0670FD5
:100CA000781F891F9A1FA11D680F791F8A1F911D28
:100CB000A11D6A0F711D811D911DA11D20D009F478
:100CC00068943F912AE0269F11243019305D3193BA
:100CD000DEF6CF010895462F4770405D4193B3E0A3
:100CE0000FD0C9F7F6CF462F4F70405D4A3318F04A
:100CF000495D31FD4052419302D0A9F7EACFB4E0FB
:100D0000A6959795879577956795BA95C9F70097B2
:100D10006105710508959B01AC010A2E0694579553
:100D2000479537952795BA95C9F7620F731F841FAA
:100D3000951FA01D08952F923F924F925F926F9240
:100D40007F928F929F92AF92BF92CF92DF92EF925B
:100D5000FF920F931F93CF93DF93CDB7DEB7CA1BDC
:100D6000DB0B0FB6F894DEBF0FBECDBF09942A8807
:100D7000398848885F846E847D848C849B84AA84AF
:100D8000B984C884DF80EE80FD800C811B81AA813C
:100D9000B981CE0FD11D0FB6F894DEBF0FBECDBF07
:080DA000ED010895F894FFCF66
:100DA8005374617274696E672073656E736F722015
:100DB8006D6F6E69746F72696E672E2E2E0D0A0044
:100DC80054656D703A2025642E25303264206465A0
:100DD80067432C2048756D3A2025642E25303264EF
:100DE800252552482C204C696768743A20257520BF
:100DF8006C75780D0A005261772041444320566192
:100E08006C75653A2025750D0A0052617720546586
:100E18006D7020446174613A204D53423D3078250D
:100E28003032582C204C53423D3078253032580D02
:100E38000A005261772048756D20446174613A2038
:100E48004D53423D3078253032582C204C53423D8A
:0A0E58003078253032580D0A0000F2
:00000001FF
